:10000000785500202D37000025F801001937000031
:1000100019370000193700001937000000000000F0
:10002000000000000000000000000000D9370000C0
:100030001937000000000000913700001937000058
:1000400051390000C15C01005139000051390000F4
:100050005139000051390000513900005139000078
:100060005139000051390000513900005139000068
:100070005139000051390000513900005139000058
:100080005139000051390000513900005139000048
:100090005139000051390000513900005139000038
:1000A0005139000051390000513900005139000028
:1000B0005139000051390000513900005139000018
:1000C0005139000051390000513900005139000008
:1000D00051390000513900005139000051390000F8
:1000E00051390000513900005139000051390000E8
:1000F00051390000513900005139000051390000D8
:1001000053B94AB9002908BF00281CBF4FF0FF317E
:100110004FF0FF3000F0A0B9ADF1080C6DE904CE4E
:1001200000F006F8DDF804E0DDE9022304B07047D2
:100130002DE9F0470646DDF820E00846B446002BDE
:1001400055D18A42154674D9B2FA82F49C42C4F160
:10015000200205FA04F318BF1D4626FA02F201FA3E
:1001600004F342EA030206FA04F30CBF0A469C4673
:100170002E0CAFB2B2FBF6F14FEA1C4306FB112284
:1001800043EA024301FB07F29A4209D9EB1801F155
:10019000FF3080F002819A4240F2FF8002392B4406
:1001A0009B1A1FFA8CFCB3FBF6F006FB10334CEAEB
:1001B000034C00FB07F363450AD915EB0C0C00F167
:1001C000FF3280F0E880634540F2E580AC440238BD
:1001D00040EA0140ACEB030C0021BEF1000F04D05B
:1001E0002CFA04F40022CEE90042BDE8F0878B42ED
:1001F00008D9BEF1000F01D0CEE900610021084608
:10020000BDE8F08717460A46B3FA83F100294CD1BE
:10021000834202D3B74200F20E81B6EB070C60EBCB
:10022000030301201A46BEF1000FDED0CEE900C262
:10023000DBE7002A00F096801C46B2FA82F3002B1E
:1002400040F0AD808B1A160C90B20121B3FBF6F290
:1002500006FB12374FEA1C4343EA074300FB02F751
:100260009F4207D9EB1802F1FF3802D29F4200F2F9
:10027000E7804246DB1B1FFA8CFCB3FBF6F706FB5C
:1002800017334CEA034C07FB00F0604508D915EB27
:100290000C0C07F1FF3302D2604500F2CE801F46FE
:1002A000ACEB000C47EA024097E7C1F120058B4018
:1002B00027FA05FC4CEA030C00FA01F426FA05F3D0
:1002C000E8404FEA1C42234307FA01F906FA01FA13
:1002D000B0FBF2F71FFA8CF602FB17001C0C44EA85
:1002E000004407FB06F0A0420AD91CEB040407F106
:1002F000FF3880F09E80A04240F29B80023F644421
:10030000241A9BB2B4FBF2F002FB104443EA04430C
:1003100000FB06F69E420AD91CEB030300F1FF34F2
:1003200080F085809E4240F282800238634440EA39
:100330000740A0FB09749B1BA3423E46A04667D31F
:1003400064D0BEF1000F0AD0BAEB060263EB0803DB
:1003500003FA05F5CA401543CB40CEE9005300210E
:10036000BDE8F087730843EAC07349081A0C42EAF3
:1003700001424FEAC67C9BB22846A8462E461F245F
:1003800043EA0243B1FBF5F1B2FBF5F2A3EB08033C
:1003900042EA01415AE710461AE7014600E71C46C7
:1003A000C3F120029D40A04026FA02F3034321FA44
:1003B00002F206FA04FC2E0CA8B2B2FBF6F106FB20
:1003C00011271A0C42EA074201FB00F797423CD979
:1003D000AA1801D2974222D8D21B0139B2FBF6F7F4
:1003E00007FB00F806FB17229BB243EA0243434592
:1003F00029D2EB1807F1FF32C8D2023F434538BF7C
:100400003A465F19434538BF3B46BFE7BA4598D2E5
:10041000B7EB090664EB0C040138A04691E7EF1B2B
:100420003A440239B2FBF6F707FB00F8DAE7204658
:100430007DE7474664E70846F5E6AC44023F2FE710
:10044000023A2B4416E73A46A0E7D21BB2FBF6F776
:1004500007FB00F8C6E700BF704700BF00000000C0
:10046000002273B5114640F6034004F005FA044635
:1004700000284BD103F040FF214601AA41F20300BE
:1004800004F0FAF90446002840D1019D7948E96852
:10049000082201311FF0DDFA284603F051FC214605
:1004A00001AA41F2010004F0E7F9044670BB01988B
:1004B000714DC3685A7885F870205A88A5F8722063
:1004C0001A7985F87120B3F80720A5F87420B3F8DD
:1004D0000530A5F8763003F033FC214601AA41F23D
:1004E000020004F0C9F9044680B9019EF168402277
:1004F000013105F180001FF0ACFA304603F020FC1A
:1005000095F87C305A0604D46FF01204204602B0ED
:1005100070BD214601AA42F2030004F0ADF9044681
:100520000028F3D1019EF1680822013105F1D800BD
:100530001FF08FFA304603F003FC214601AA42F275
:10054000020004F099F904460028DFD1019CE36819
:10055000B3F8012091B249B1D97839B1A5F8042195
:10056000DA78114605F5847024F01EF9204603F070
:10057000E7FB95F87C401F2314F02004A5F82031F8
:1005800018D14FF0FF304FF0FF3103F0EFFF064678
:1005900000286BD002210C301FF0F0FA01234470C8
:1005A00003702246314640F66D4004F065F904467A
:1005B0000028ABD195F89C301B0712D501AA002169
:1005C00042F21C0004F058F9044600289ED101981C
:1005D000C368D3F80120D3F80530C5E9382303F008
:1005E000AFFB95F8D8309E0623D50DF10201684681
:1005F0001FF008FF0446002888D14FF0FF304FF06D
:10060000FF3103F0B3FF064680B304210C301FF026
:10061000B5FABDF800300380BDF8023043802246B1
:10062000314642F2240004F027F9044600287FF402
:100630006DAF95F8D8305C0610D501AA002142F2C2
:100640002A0004F019F9044600287FF45FAF0198EE
:10065000C3685B7885F8223103F072FB4FF0FF30FE
:100660004FF0FF3103F082FF044638B96FF06804A1
:100670004CE700BF780000200000002008210C306B
:100680001FF07CFA95F8D81011F0400F40F20223C9
:10069000024608BF032388074CBF43F02C0343F0F6
:1006A0000C038E0695F8D96006F0090648BF43F0A2
:1006B00040030EB143F4006301F0010143EA01106D
:1006C00000211FF09AFC2146002242F2010004F0B2
:1006D000D3F8044600287FF419AF95F87C30B5F8BC
:1006E0000411980600F18580C9B901AA41F20500FC
:1006F00004F0C2F8044600287FF408AFB5F80431CE
:10070000019C4BB9E368B3F80120A5F804219A884D
:100710003F48114624F048F8204603F011FB4FF003
:10072000FF304FF0FF3103F021FF044600289DD039
:1007300008210C301FF022FA95F8D830D90702466C
:100740005CD434484FF000511FF057FC2146002282
:1007500040F6014004F090F8044600287FF4D6AE3D
:10076000014601AA4FF6014004F086F8044648BB52
:10077000019803F0E5FA214601AA4FF6024004F081
:100780007BF80446F0B9019E2348F168022201314A
:100790001FF05FF9304603F0D3FA95F8C1305B07DC
:1007A00010D501AA21464FF6034004F065F848B978
:1007B000019C1A48E168012211441FF04AF92046C1
:1007C00003F0BEFA1FF0F8FF044600287FF49EAE47
:1007D00006F040F8044600287FF498AEEB79002B31
:1007E0003FF494AE08210E481FF06DFB03F096FF16
:1007F0008CE6002993D16FF0040487E602A1D1E9C9
:100800000001A1E7AFF30080908800020080002083
:100810000801002010880002C1000020C000002054
:10082000D4000020000000002DE9F8438846D0E9FC
:10083000071685698C192F34A54291461AD81E4E89
:100840001BA3D3E90023A1FB0601FFF759FC0346D4
:10085000601BA0FB060123F07F4415A3D3E900230E
:10086000FFF74EFC20F07F40C8F80040C9F80000B8
:10087000BDE8F883104F0EA3D3E90023A5FB0701C1
:10088000FFF73EFC20F07F440C480A2108A3D3E97F
:100890000023E6FB0701FFF733FC20F07F40C8F898
:1008A0000040C9F80000BDE8F88300BFAFF3008046
:1008B0008D49FD1A0700000000CA9A3B00166BF133
:1008C0002DE9F0478E4C94F85E508EB005F001058E
:1008D000002800F0EB80002D40F07E81607EFF2339
:1008E00000F00300A37614F06DFD94F85E0042075B
:1008F00000F1CD80627F94F8293004EB820204EB92
:100900008303166ADB6A984686B17D4831460EF04D
:10091000BFF833785B0605D5062109F037F90028C2
:1009200000F09781764841460EF0B2F8337813F024
:100930000E0F40F09980636923B10C2528460EB054
:10094000BDE8F0870BF0AAFC0746002800F08D8177
:100950000BF0B0FC8146002800F084810EF0AAFB69
:100960000346002800F07B81D0F888004FF6FF7224
:100970009A8403F1100A002800F0798103F17C02C7
:1009800003F178010B9309F00DF90B9BB3F8761086
:1009900021F4EF6121F0070141F48C7141F0010174
:1009A000A3F8761093F8371001F03F0161F07F0152
:1009B00083F8371093F88E1021F0070183F88E101A
:1009C00093F83C1021F00F01002283F83C104FF403
:1009D000C021C3F88811C3E91222C3F88820A3F804
:1009E0008C2083F839205A85C3F82E201A65A3F885
:1009F0008E21A3F88421184610F040FD0B9B0022A5
:100A000083F85021C3F854710EF056FE0B9B93F8F7
:100A1000941160F3020183F894110EF053FE0B9BC6
:100A200093F894C160F3C50C93F8800183F894C1E6
:100A300020F0020083F88001012118460FF056FAD9
:100A40000B9B03F1D40010F0E7FA0B9BC4F814A041
:100A50000022C4E91579C3E902221A701B6115F05E
:100A60005BFF002840F0F780237E0121C3F342039F
:100A70000DF133008DF8333009F038FA002847D1F2
:100A80006369002B3FF459AF0DF0BCFC55E72A46D3
:100A900004F15F01C0F3C00014F00CFEFF28A07643
:100AA0003FF428AF284614F0A7FC23E7002D3FF4BD
:100AB00045AF63695BB193F82C2042F0020283F8E2
:100AC0002C20636993F82C30D9073FF536AF0C48DA
:100AD0000BF0B6FCA0420ED00A4A0B490B4840F678
:100AE00026331DF056FE002383F31188BFF36F8F6A
:100AF0000323184602DF0EB0BDE8F0470DF0C6BC78
:100B0000B0200020685B02007C5C0200CC57020031
:100B100098F80110024630460DF048FD584A594BEE
:100B2000B4F85C700721E0FB023118464FF0000377
:100B300023700023C4E902334FA3D3E90023FFF756
:100B4000DFFA60600AF0F0FC00F10908002F7ED1A6
:100B5000327802F00F02A2F10102B2FA82F25209D7
:100B6000207E636862F3000010F00106207638D022
:100B7000454A0493002001930992CDE90200022620
:100B80000694434600900DAF1060C1463F4ADFF81F
:100B9000008105920321CDF81C80089732460D96FE
:100BA0000AF0B8FB39460BF035FC00287FF468AF3B
:100BB000384A05924AF2D8320092CDE90300CDE9D5
:100BC0000100CDF81C80089706944B4601220321B2
:100BD0000D960AF071FB2BE0002528460EB0BDE80B
:100BE000F087294A2C48049303F24713069402968F
:100BF00091211360A7FB000301FB0731244B0793EE
:100C0000224B059302230D930DAB08931F464FF61D
:100C1000FF730992039318A3D3E90023FFF770FA37
:100C20004346CDE900600222304603210AF072FB00
:100C300039460BF0EFFB00287FF422AF94F85E30CA
:100C40000120034384F85E3014F09EFB76E6002218
:100C500086E7122572E60DF0D5FB03256EE64846C1
:100C60000BF02EFB38460BF01FFB072566E603F161
:100C70008000C3F8880081E68D49FD1A0700000056
:100C800000CA9A3B8C49FD1AA42000201DE60000F2
:100C9000A1B60000A5E10000002AE78400000000E2
:100CA00070B5037E8AB0C3F342030D4604460121AA
:100CB0000DF1230016468DF8233009F017F97178ED
:100CC000024628460DF072FC1D4A1E4B0721E0FB30
:100CD0000231184618A3D3E90023FFF711FA63681D
:100CE0009842054621D21B1A00220192164A02930D
:100CF000164BA21A0221A3FB023201EB521200236F
:100D000009AE099112490591CDE9033303210696F5
:100D1000D2B2009318460AF05BFB31460BF07AFB27
:100D200038B9656000200AB070BDFBD9C21A002333
:100D3000DBE70C200AB070BD8D49FD1A07000000EA
:100D400000CA9A3B8C49FD1AB02000204FECC44EDB
:100D5000A1B60000000000002DE9F04F81468BB0E5
:100D60008A46012002219846144617F0D5FD00223C
:100D700002218346012008F065FF3D494FF4D072FF
:100D8000484608F0EDFEC51C3A4B0093EDB2CDF895
:100D9000049043462A46012100200AF081FB10F00E
:100DA000FD0F0ED0344A3549354840F6B4031DF0E6
:100DB000F0FC002383F31188BFF36F8F03231846E1
:100DC00002DF304FA4FB074727A3D3E900232046C7
:100DD0003946FFF795F9CDF82090CDF81890D9F85D
:100DE00004300493284B20F07F46A6FB0331E01A21
:100DF000264B07934FF00702254B059302FB061184
:100E00004FF6FE7367EB010103934FF47A720023F0
:100E1000FFF776F9CDF800A0CDE9016043462A46F8
:100E2000012100200AF048FA10F0FD0F0ED0124AFE
:100E30001249134840F6C9031DF0ABFC002383F3AD
:100E40001188BFF36F8F0323184602DFBBF1000F39
:100E500002D10BB0BDE8F08F0122022110460BB089
:100E6000BDE8F04F08F0EEBE8D49FD1A0700000006
:100E7000380D0020CDEF00001C5D0200E05D020097
:100E8000CC57020000CA9A3B8D49FD1A6DEF000055
:100E90004D47010000000000F0B58468A28C4FF6B9
:100EA000FF739A428FB000F0DB800546204610F0B9
:100EB00097FD2B7D012B00F0FC80022B00F0D280EF
:100EC00033B994F88E3003F01803182B00F03981F1
:100ED00094F85061002E40F0C880E38D94F93720DB
:100EE0001F462B8ACDE90C66002B00F0C580B2426C
:100EF000C0F241810023A4F88A31AA7CA38D02F0BC
:100F000003020133012A9DB200F03181B4F88E2131
:100F1000002A00F0D780AA4240F24F81521B92B2C1
:100F20000021062AA4F88E21E18540F2C88094F9B8
:100F300037208A42C0F24681002294F83C1062F3C6
:100F4000820184F83C100DF12F022946204610F052
:100F5000D1FA743000F03A81B4F888212AB1AA425B
:100F600040F2DF80521BA4F88821B4F884212AB112
:100F7000AA4240F2CF80521BA4F88421E58D16B915
:100F8000AF4200F0C2800135ADB294F8D13013F019
:100F900001000ED1DDE90CC3002B3AD1BCF1000FEA
:100FA00040F0B5800DB9002E5AD00020014603460E
:100FB00030E094F9372023F00103002A84F8D1307F
:100FC000C0F29B8094F87600C0F3C00100F00700E7
:100FD00015F0B8FAB4F86E20B4F86C301344E28B14
:100FE00003F23F13134418449B4A9C4B0721E0FB38
:100FF0000231184696A3D3E90023FFF781F8616810
:1010000020F07F429142DDE90CC380F0CC80501A81
:1010100062600021A28C24690694CDE90356033254
:101020008F4D0291CDE900C0D2B20121002005957B
:101030000AF0CEF910F0FD0F12D00BF019FAA04211
:101040000ED0884A8849894840F282531DF0A1FB9E
:10105000002383F31188BFF36F8F0323184602DF49
:101060000FB0F0BD3D2684F85061314620460FB0E8
:10107000BDE8F0400EF00ABC9A42B8BF84F8756132
:10108000AA7CA38D02F003020133012A9DB26ED027
:10109000B4F88A21002A3FF439AFAA4240F29C807A
:1010A000521BA4F88A21B4F88E21002A7FF433AFB2
:1010B00043E70023A4F88831A4F8843108E7012627
:1010C00032463AE7E18C052997BF013140F2E2420E
:1010D0004FF4FA7289B202FB01F1B4F88C2142F2AA
:1010E000107000FB0212013AB2FBF1F292B2A4F8C6
:1010F0008E21002A7FF40FAF1FE794F877000121BB
:1011000000F0070015F020FA64E735463DE7184681
:1011100019467FE70023A4F88431204610F092FAA4
:101120002CE70BF00DF9014600285AD00022A4F854
:101130008821A28CC2801B22027100680BF0D2F8B9
:1011400013E7218DB4F886218B1D9A42C4BF931FEB
:101150005B1AB4F88211CCBF9BB2134699424FD0B0
:10116000A4F88231A4F88431A4F88821B0E60022E2
:10117000A4F88E21E1E694F87531002B46D0013BAE
:1011800084F8753104F1D403184609930FF084FFF5
:10119000099B002849D018460FF07EFF002849D04F
:1011A0000023E385A6E6891A6260002B3BD151EA51
:1011B0000C023FF4F7AE18462CE7082120460EF04B
:1011C00065FB4DE78FB10A460126B6E69DF82F1064
:1011D00020460EF05BFB43E73E2120460EF056FB17
:1011E0003EE70122A4F88821BFE6D4F878617208AE
:1011F00016F0010618BF42F00042C4F878219BE6C1
:10120000B4F8881100297FF463AEABE70CAA0DA9EE
:101210002846FFF709FBDDE90C231343B2D02378FE
:1012200084F87531AEE70020F4E6FF200EF0F0FA06
:10123000099BB0E70246D4E91E0108F0C7FC00286C
:10124000AED194F83C301B0744BF238DE38551E6B3
:101250008D49FD1A0700000000CA9A3B8C49FD1A0F
:1012600029EF00001C5D02005C5E0200CC5702000A
:101270002DE9F04F87B0CDE903120593BDF8442066
:1012800003780192BDF84820BDF840B0BDF84C800D
:10129000B0F8309002920446002B00F0088109F16A
:1012A000FF3994F87600D4F80C71A9EB08039DB2CD
:1012B000C0F3C00100F00700009515F043F9E68C7B
:1012C000052E40F2EC8016FB05F6B6B240F2E24A7B
:1012D000BBF1050F40F2D780B4F86E20B4F86C3043
:1012E000134403F2D51318447F4A804B0721E0FBD7
:1012F000023118464FF09613E3619623238478A3B6
:10130000D3E90023FEF7FCFE5D4620F07F4040F26B
:10131000E2420AFB06F302FB05F55E1E2E44B6FB15
:10132000F5F61FFA86FA606005FB0AF0834280F04A
:101330009D806D49C01AA0FB010169A3D3E9002378
:10134000FEF7DEFE20F07F400744628DB4F81431D2
:101350001A44904494F83720A8EB09084644D2096F
:10136000668500F0AA80216CDFF87C8103FB011206
:10137000009B01FB03F3A16C0A44616C8A4294BF99
:10138000C3EB0203C3EB0103A36415F019FB06468C
:1013900094F87401C0F3420015F016FB064405FBF7
:1013A00006F6534B06F5742606F23F26A3FB0636D7
:1013B000B60CA36C266406FB0AF06A080344963A4E
:1013C000934228BF1346C4E91123049B40F2E2492B
:1013D00009FB03F323650023C4F87C31A0FB08015B
:1013E0003FA3D3E90023FEF78BFE424B059A3F1A39
:1013F000A3FB0230800A09FB00F0A0FB080138A320
:10140000D3E90023FEF77CFEAE1B20F07F48019B52
:101410002385029BA4F88C3129462046A4F826B0E7
:1014200010F0A4F8228D344B911DEB18B3FBF5F3AB
:101430009A1A98B2063AA4F88631884288BF1346B1
:10144000A4F88231039B13B10023A4F88E313B46EC
:10145000324641462046FFF77FFC94F8803143F046
:10146000010384F8803107B0BDE8F08F1B1A1E48D5
:10147000A3FB00011AA3D3E90023FEF741FE20F0ED
:101480007F403F1A61E74FF096130BF10105E361CE
:101490009623ADB223844FF4FA720A2039E7009BF9
:1014A000013616FB03F6B6B24FF4FA7A10E7438D15
:1014B0009944B0F814319944F3E6104A10491148A0
:1014C00040F685131DF065F94FF0000888F3118888
:1014D000BFF36F8F0323184602DF2E4697E700BF46
:1014E0008D49FD1A0700000000CA9A3B8C49FD1A7D
:1014F00083DE1B435917B7D17FC3C9011C5D0200AE
:10150000A8580200CC5702002DE9F04F0B6816686E
:10151000D3F80090037F97B00F46C3F3801300F118
:101520001E010446154614A806228DF847301EF009
:1015300090FA97F8118012ABB8F1FF0F0D935FD0BE
:101540001A460DF14701404613F03AFC9DF847302A
:1015500002338DF84730A34603225BF81C3B0B9304
:1015600004F12E0105F108001EF073FA042205EBC8
:10157000020A04F12A0150461EF06BFA05F122031B
:101580000522184604F13A010C931EF062FA0C98F9
:10159000052108F0ABFC95F8273000F03F0060F320
:1015A000050385F8273094F83F30C3F3040385F82A
:1015B0002830A28EEA8201280AD91B3303F01F03C8
:1015C0000B2B05D8063A92B240F67A439A421DD9BF
:1015D0000022C9F8082095F82C300B9862F300031C
:1015E00085F82C30012621462671E4680AF06EFE4B
:1015F0002068267121460AF075FE17B0BDE8F08F0D
:10160000062214A918461EF024FAA4E73B6800211C
:101610005960E38EEA8A2B8340F2E24303FB02F235
:101620000C92628E0F9230460FF0B6FF94F83F2076
:1016300096F87411520962F3430186F8741115F09B
:10164000BFF90E9096F87401C0F3420015F0BCF992
:101650000E9A0C9BBE49024403FB02F202F574226F
:1016600002F23F22A1FB0212920C2A635A08963A18
:101670006A6394F83120194640F2E24302FB03F317
:101680006B64238FA6F88C3130460FF06FFF0C99F6
:10169000B04BB14AC6F89021CB18B3FBF1F3A6F8D2
:1016A0008631298B581A1FFA83FC063106388C457F
:1016B000C8BF0346A6F882310422514606F5BC7025
:1016C0001EF0C7F9237F1BF0010FC3F340130E93E5
:1016D00040F014814FF48073A38399F81A0014F03A
:1016E00053F90146062204F12B00002900F0EA809C
:1016F00004F124011EF0ADF9B8F1FF0F04F125004B
:1017000000F0E38014A906221EF0A3F99DF84730EB
:101710000D99A377062204F11F001EF09AF9EB8AB7
:1017200063862B8BA386B6F88C31E38696F87431EA
:10173000C3F3420384F8383030460DF0C7FCA8826A
:10174000E08021460B987C680AF0C0FD1C23AA8A21
:1017500023710E9BD4F80080E280002B40F0BA8009
:101760000E9B2377214640460AF0BCFD95F86700A2
:10177000B5F85C80B5F85E40012100F0070014F078
:10178000E3FE04EB080303F2D513DFF8D0818246B1
:10179000034473480721E3FB08014FF09613C5E9A2
:1017A000033369A3D3E90023FEF7AAFC20F07F40AE
:1017B00070602A6B0C9B0F989D1AFB6840F2E24107
:1017C00001FB003404F2B3440221A41A01200022D8
:1017D00008F038FA48460DF019F9A4EB0A045AA3A8
:1017E000D3E900238246A4FB0801FEF789FCCDF86B
:1017F0000490BB685B49009120F07F480AF1020227
:101800003A3BD2B243440121002009F049FE0128AD
:1018100000F0838099F81830DB0767D430460DF06C
:1018200055FC4E4CA5FB044947A3D3E9002383464E
:1018300049462046FEF764FCBB684B4A0792A3F179
:101840003A0A4A4B069620F07F45A5FB0331E01A81
:10185000474B05934FF4F8730893736804934FF064
:10186000070303FB051169EB010100244FF47A72B1
:1018700000230394FEF744FC0BF10307FFB2CDE90C
:101880000150CDF8008053463A460121204609F028
:1018900013FD10F0FD0F0DD0364A3749374840F29E
:1018A000F1131CF076FF84F31188BFF36F8F0323CD
:1018B000184602DF01220221104608F0C3F917B0D2
:1018C000BDE8F08F1EF0D0F816E7062200211EF0CA
:1018D000CBF81BE795F8273043F0400385F8273015
:1018E000504613F051F8012328853AE700230122DE
:1018F00000931846114609F091FD8FE71D4A2049D3
:101900001E48FD231CF045FF002383F31188BFF31D
:101910006F8F0323184602DFDCE60AF0A9FD81453C
:101920003FF478AF134A174914484FF426731CF05C
:1019300030FF002383F31188BFF36F8F0323184612
:1019400002DF67E7AFF300808D49FD1A0700000052
:1019500083DE1B437FC3C901404B4C0000CA9A3B46
:101960008C49FD1A09470100D54601008D49FD1A31
:101970004D47010088620200E05D0200CC57020082
:10198000F05A0200E46202002DE9F04F344F354E68
:101990008FB00DF1370183460DF136000AF012FDCC
:1019A0009DF836909DF837A009F0BEFD3D680B907C
:1019B000A5FB064528A3D3E9002320462946FEF7C8
:1019C0009FFBCDF818B020F07F487868264B059330
:1019D000A0FB060120A3D3E900230026CDE907667A
:1019E000FEF78EFB214B20F07F40A8FB033107223E
:1019F000CDE9036002FB0811E01A65EB01014FF429
:101A00007A720023FEF77CFB0B9B0096CDE90180E8
:101A100052464846032109F04FFC10F0FD0404D063
:101A20006FF08B000FB0BDE8F08F1148114A002312
:101A30001BF07EFB18B9F8680FB0BDE8F08F9DF879
:101A400037209DF8360000942346032109F0E6FC78
:101A50006FF07300E6E700BF8D49FD1A0700000034
:101A6000C026002000CA9A3B455C01008D49FD1A42
:101A7000A8260020447B0B0038B50F4D044609F022
:101A800053FDA96809F052FD696803460B48B3FB92
:101A9000F4F4A1FB00011C4405A3D3E90023FEF7E5
:101AA0002FFB20F07F40844294BF0020012038BDEE
:101AB0008D49FD1A07000000C026002000CA9A3B8D
:101AC000F0B5C468636883B00646002B64D116F095
:101AD00073FA002016F098FA0021084616F086FAEC
:101AE00000222521082016F0C3FA474B019301A8D4
:101AF00016F0AAFA454940F25B6016F057FB237ACC
:101B0000C3F3420262F306132372204615F08AF9EA
:101B100014F018F8637A03F0030340BBF3B92768A5
:101B20003568384614F0B4FC054405F109017268C3
:101B3000012016F089FC16F055FD20460CF072FFCE
:101B4000811C2A46C9B2384614F0A4FC054670BB75
:101B5000204614F043FC70B903B0F0BD012013F02F
:101B600007FC4178821C007816F00EFCD7E7181E9F
:101B700018BF0120F3E7264A2649274840F22943A7
:101B80001CF007FE85F31188BFF36F8F03231846FF
:101B900002DF002003B0F0BD93F82C309B0796D0F5
:101BA0001E48214616F0C4F916F0AEFAF1E7184ABD
:101BB0001B49194840F211431CF0EBFD194B07215A
:101BC000A5FB030301FB05310DA3D3E90023FEF7B9
:101BD00097FA1549024615481CF0DBFD002585F3F0
:101BE0001188BFF36F8F0323184602DF1048214688
:101BF00016F09EF916F088FA6FF08B00ACE700BF84
:101C000000CA9A3B00000000D6BE898E555555008B
:101C1000D0660200BC590200CC5702002D660100BC
:101C2000A85802008D49FD1A8C6A02005467020010
:101C3000D569010000000000F0B5C468A28A4FF623
:101C4000FF739A4283B000F0DA80074615F03EFC3D
:101C50003B89628B208CA3831A4492B2104494F87F
:101C60002730E28380B2411C218403F03F0500212C
:101C70005B06618300F19B8094F82810009504F1C5
:101C8000220304F1290012F039FE0546D4E90C3193
:101C9000A28B02FB0333A26B1344E26B8B4294BF13
:101CA000D21852188A4228BF0A46636CE263226C3B
:101CB00094F86710134494F82C20636461F30612BF
:101CC00084F82C2094F87E20002312F00402A363F1
:101CD000236476D016F070F9002016F095F9201DD7
:101CE00016F0B2F92389A17A40F25B6043EA014120
:101CF00016F05CFA284614F0E1FB21465A4816F02B
:101D000017F9A08916F094FB94F8662094F8670000
:101D1000C2F3C003002102F0070200F0070016F032
:101D2000ADFA204615F084FC26683D68304614F074
:101D3000AFFB05447A6805F10901002016F084FB29
:101D4000074616F023FC002016F03AFCE36B94F8EB
:101D5000670003F12F02636C00F0070003EB4203FE
:101D600001211F4416F0C2F93B1894F8670000F0F7
:101D70000700022823D004280CBF4FF4BC7228228D
:101D800001219F1816F0B4F9384416F0F1FBA18A2E
:101D900003312A46C9B2304614F07CFB05460028C0
:101DA00034D1204614F01AFBC0B903B0F0BD2B4665
:101DB000218D04F1220212F0EBFD054666E71822A0
:101DC000DEE7D4E91A0107F001FF002882D194F878
:101DD0007E3043F0040384F87E307BE7234A2449B5
:101DE00024484FF4B0731CF0D4FC85F31188BFF382
:101DF0006F8F0323184602DF002003B0F0BD1E489A
:101E0000214616F095F816F07FF9F5E7174A1B49B9
:101E100018484FF4AB731CF0BCFC194B0721A5FB11
:101E2000030301FB05310EA3D3E90023FEF768F994
:101E30001449024614481CF0ACFC002585F31188B7
:101E4000BFF36F8F0323184602DF1048214616F0B8
:101E50006FF816F059F96FF08B00A6E7AFF300802A
:101E600000CA9A3B00000000B97801000068020037
:101E7000BC590200CC5702002D660100A858020090
:101E80008D49FD1A986A0200546702000566010038
:101E9000F0B403460A461979DB88006813430A4AFE
:101EA0000669876834689A4308BF83F44023012594
:101EB0008D4023F48012DB074CBF2C43AC433460CD
:101EC0003B68F0BC184700BF0100100008B5044B88
:101ED00001221A7002F0C2FE08B1024B186008BD60
:101EE00058330020D01200202DE9F0412E4F3B78CE
:101EF00088B0064633B103F017FC044610B110F168
:101F0000780F4CD1294DDFF8A88000233B702B704F
:101F1000C8F8003002F0C8FE044600283FD1254929
:101F2000024607F057FCD8F80040002C37D116B90C
:101F30002E7886F00106204D30462E701F4E07F099
:101F400045F90FCE03AC0FC4336823602B780BB96F
:101F50008323049301261A4B1A490096032203A8EF
:101F600003F0ACFB0446D0B93E7022F06FFE4FF494
:101F70007A72A0FB020302FB01312D78124AC00BDA
:101F800047F2305340EA4140A54218BF13461B18A0
:101F90000E4A4FEAD13141F10001C2E90031204639
:101FA00008B0BDE8F08100BF5A330020583300204C
:101FB000D0120020CD1E0000593300201052020024
:101FC0008852020090520200C0D40100780700201D
:101FD000064B10B59C684FF48051636903489847DD
:101FE000002140F6CD4022F0AEFDF4E7744E020031
:101FF000084B1A691268D20448BF80F0010028B16A
:102000009B68DB6803484FF4805118479B681B6945
:10201000F8E700BF744E020001481BF04FB800BF44
:10202000F805002008B50F4BBFF35B8F002253E883
:10203000001F43E800200028F9D1BFF35B8F00F0B8
:10204000EBFABFF35B8F084B012253E8001F43E814
:1020500000200028F9D1BFF35B8F0448BDE8084099
:102060001BF02CB8D8120020D4120020F805002054
:1020700038B50122044659B1BFF35B8F0F4B53E8CB
:10208000001F43E800200028F9D1BFF35B8F38BD63
:102090000B4BBFF35B8F53E8001F43E80025002D77
:1020A000F9D1BFF35B8F02211EF034FE0028EED081
:1020B00020460521BDE838401EF0C3BDD4120020E3
:1020C000D81200202DE9F04F91B0974C204622F015
:1020D000D3F9002800F0D981204622F0CDF900285C
:1020E00000F0D381204622F0C7F98146002800F095
:1020F000CC818E484FF4B011FFF7CAFE002840F0A3
:10210000C9818B484FF48031FFF7C2FE28B9894856
:102110004FF48031FFF7BCFE08B1FFF759FF864A44
:10212000864B53604FF4A0739360A368DB69002B68
:10213000F3D081490122204698470028EDD17C4800
:102140001CF044F90028E8D17A481CF03FF9002837
:10215000E3D102F049FC0028DFD11DF011FA00287C
:10216000DBD1FFF7C1FE83460028D6D1CDE90E00B2
:10217000CDE90C00CDE90400CDE90A00CDE9080065
:10218000CDE90100DFF8B8A100900646804622F0B4
:102190005DFD6C4A039105460020BFF35B8F52E85A
:1021A000003F012B03D142E800010029F7D1BFF322
:1021B0005B8F0FD1029B8AF8000023B1624902F0C5
:1021C000FDF90028A9D10298FFF78EFE0028A4D1BE
:1021D000CDE90100062154481CF0E3F80821074628
:1021E00051481CF0DEF850EA070296D4039B4FF4E6
:1021F0007A72A5FB024502FB035547EA4003E40B54
:102200009B4544EA454403934FEAD53540F0A2800C
:102210000E9BB4EB030B0F9B65EB0303BBF11E0F8F
:10222000079373F10003C0F2EA80039B03F00203FB
:102230000693039B13F0010735D0B8F1000F32D19C
:10224000424BBFF35B8F1A68BFF35B8FEAB1019A11
:10225000DAB9012000F0B8F93C4BB0B914F13C03F5
:102260000A934FF0010045F100030B93FFF7C0FE06
:1022700014F15003049345F100030593069B002BD2
:1022800040F00B814646B84670E0BFF35B8F1B6899
:10229000BFF35B8F3BB99AF8000020B9FFF724FE2B
:1022A00000287FF43AAF069B002B00F0AA80002E96
:1022B00000F0A980009B002B40F0A980089BE11A48
:1022C000099B40F6B83265EB0303914273F10003BA
:1022D0000FDBBFF35B8F1D4B1B68BFF35B8F63B1DD
:1022E000009A1B49012003F039FFCDF80890CDF882
:1022F00000904E4635E00196DCE79AF8003023B1B5
:1023000003F012FA00287FF408AF00200E498AF883
:10231000000002F053F900287FF4FFAE0120FFF720
:10232000E3FD0028E3D0F8E6744E0200A852020054
:10233000B8520200B0520200DC1200201920000046
:102340005A330020D412002095780200D8120020C1
:10235000C7E30100CDE90E454FF0000B4746CDF82D
:102360001CB0019B002B54D1B846019F9AF8003055
:10237000002B6BD0BFF35B8F4C4B1B68BFF35B8FA5
:102380007BB94B4BD3E90023944275EB030308DB85
:1023900003F0CAF900287FF4C0AE8AF8000006F006
:1023A00015FF9AF80030002B50D0BFF35B8F3F4BE6
:1023B0001B68BFF35B8F002B48D10C9B3D4AE11A91
:1023C00012780D9B65EB0303002A0CBF4FF4FA62F1
:1023D0004FF4FA72914273F1000337DB0120FFF7EB
:1023E00007FE14F11E03CDE90C45049345F10003EB
:1023F0000593039B03B99FB34FF4A4723DE0474696
:10240000AFE7069EADE7CDE90845009671E7009E6F
:10241000A7E70A9B9C420B9B75EB0303A4DB002000
:1024200000F0D2F878B10A9BE11A0B9B40F2E93236
:1024300065EB0303914273F1000395DB1E49002213
:10244000012003F08BFEB84600278FE7049B9C42D7
:10245000059B75EB0303CCDB0020FFF7C9FDC8E744
:10246000079BBBF1280F73F10003C5DB049B9C4263
:10247000059B9D41C0DB4FF4804200230F481AF0BA
:1024800057FEDDF80CB0019781E66FF0120011B035
:10249000BDE8F08F6FF00400F9E7002E7FF42BAF5A
:1024A0000096CDE908453E46EDE600BFD812002073
:1024B0007807002059330020C7E30100F805002009
:1024C0001FB502240294044C0194BDF818400094F6
:1024D0001FF0BFFD04B010BD5D7802001FB50124E0
:1024E0000294044C0194BDF8184000941FF0B1FD13
:1024F00004B010BD5B3300201FB51B240294044CB4
:102500000194BDF8184000941FF0A3FD04B010BD65
:10251000637802001FB504240294044C0194BDF8B2
:10252000184000941FF095FD04B010BD5F780200C4
:1025300010B5BDF8081099B9012B14D11278012AF1
:1025400014D8BFF35B8F0B4982F0010251E8000FF2
:1025500041E80024002CF9D1BFF35B8F184610BD71
:102560006FF00600FBE76FF00C00F8E76FF0120069
:10257000F5E700BFE81200204A1E5142064BBFF3A8
:102580005B8F514153E8002F43E800100028F9D138
:10259000BFF35B8F704700BFEC120020084BBFF306
:1025A0005B8F1868BFF35B8F40B1BFF35B8F054B48
:1025B0001868BFF35B8FB0FA80F04009704700BF26
:1025C000EC120020E812002000B589B00246FFF7A7
:1025D000E5FFC8B18DF807200021182202A81DF0E0
:1025E00043FA0B4B03930DF10703049302A9012354
:1025F0000020ADF8143006F035F818B9054B9DF8F9
:1026000007201A7009B000BD6FF00C00FAE700BF98
:10261000245302005B3300200C4ABFF35B8F00237E
:1026200052E8001F42E800300028F9D1BFF35B8F69
:10263000BFF35B8F064A52E8001F42E800300028D3
:10264000F9D1BFF35B8F034A13707047EC1200207F
:10265000E81200205B33002030B50A4C0A44914256
:1026600000D130BD11F8013B58400309E35C83EA17
:102670000013DDB2C3F30313E05C80EA0510C0B2BF
:10268000EDE700BF7E780200014B1B68184700BFD2
:10269000B801002007B50B46002102460091024810
:1026A00000F01AF803B000BD8926000030B587B0ED
:1026B0000024CDE903010546009403A905480594CB
:1026C00000F00AF8DDE904309842B8BF2C5407B096
:1026D00030BD00BF9FE601002DE9F04F95B08B465D
:1026E000029091461C46002599F8000008B928463A
:1026F0003BE225280CD0029B594698470028C0F29F
:10270000348209F1010301350493DDF81090EBE701
:10271000182200210EA81DF0A7F999F801A0BAF11E
:10272000250F52D0002109F101028E468C460F463A
:102730000E4613782B2B10467DD075D8202B7CD0DD
:10274000232B7DD029B19DF8401041F040018DF838
:102750004010BEF1000F05D09DF8401041F020015F
:102760008DF84010BCF1000F05D09DF8401041F0ED
:1027700010018DF840102FB19DF8401041F0080174
:102780008DF840102EB19DF8401041F004018DF8F5
:1027900040109DF8401001F04406442E04BF21F083
:1027A00040018DF840109DF840102A2B41F0800127
:1027B0008DF8401040F0AD80531C9DF8412042F050
:1027C00001028DF84120002752E009F102034FF089
:1027D0000008049347469DF84120D60740F15081F8
:1027E00054F8047B002F06DA9DF8401041F00401F4
:1027F0008DF840107F42500740F1498154F8042B76
:1028000042EAE2789DF842109DF8412001F007016C
:102810000139C2F3C302032900F27581DFE811F028
:102820003D015B01990191012D2B0CD0302B89D1F9
:10283000012101327DE70127FBE74FF0010CF8E7AA
:102840004FF0010EF5E70126F3E70CFB0717013205
:10285000303F1178A1F13006092E1346F5D9904288
:10286000B1D09DF84020F90F61F341028DF840206E
:102870001A782E2A9DF841200CBF0121002161F316
:1028800041028DF841204DD159782A2945D05A1C52
:102890004FF000080A261178A1F1300009281346EC
:1028A00043D99DF84020C2F3400141EAD87161F359
:1028B00041028DF84020194611F8012B6C2A56D0A0
:1028C00039D8682A3FD06A2A5BD04C2A61D013F8E5
:1028D00001AB0493BAF1780F13D8BAF16D0F9DF8DC
:1028E000412063D8BAF1690F0BD8BAF1570F7BD8E2
:1028F000BAF1410F00F0AE80AAF14502022A40F27F
:10290000A9809DF8402042F001028DF8402000226D
:1029100094E000274FF00A0C9BE742F004028DF888
:10292000412002334FF00008C5E706FB08180132CA
:10293000A8F13008AFE7742A27D07A2AC7D19DF8CA
:10294000413006220DE05A78682A9DF8412006D1D0
:10295000012161F3C6028DF841200233B7E7134627
:10296000022262F3C6038DF841300B46AFE75A7876
:102970006C2A9DF8412001D10421EAE71346032285
:10298000EFE79DF841300522EBE79DF84130072243
:10299000E7E7BDF8403023F4F04323F0020343F4AB
:1029A000804343F00203ADF84030DEE7AAF16E0049
:1029B000C0B20121814040F28240014225D111F094
:1029C000240F50D1CB079CD59DF8421002F078021D
:1029D000A2F1400C032060F30201DCF100028DF84B
:1029E000421042EB0C0229E0AAF15801C9B20120C1
:1029F00000FA01F111F4624F2CD111F4043F27D1F8
:102A000040F6010001423FF47CAF02219DF84200F4
:102A100002F07802402A61F3020008BF9DF84010DE
:102A20008DF8420004BF41F001018DF84010003ADA
:102A300018BF0122BAF1630F18BF00229DF84010A1
:102A4000C1F34000024362F341018DF84010C2E639
:102A50000146DBE79DF84220042161F302028DF874
:102A600042200122EAE79DF84210032012F0780F7D
:102A700060F302018DF8421014BF01220022DDE74D
:102A80009DF940100029A8BF4FF0FF37B3E612F0C0
:102A9000020F08BF4FF0FF38B4E6D11E042904D856
:102AA000DFE801F00D40400D0D00012A54F8041B31
:102AB0000BD0022A05D108B241F3C03108E054F826
:102AC000041BC817CDE90E101DE048B241F3C01138
:102AD0000E900F9117E0D11E042904D8DFE801F011
:102AE0000D22222A2A00012A54F8041B4FF000006C
:102AF00025D0022A08BF89B2E4E720680E90261D7F
:102B000000210F9134469DF84060B10730D04E4609
:102B1000049AB242334620D8B6EB0906304624D494
:102B20003544F2E5073424F00704F4E80201CDE966
:102B30000E01E8E754F8041B0E910021C9E7C9B261
:102B4000C0E7073424F00704F4E80201CDE90E01E0
:102B5000D9E754F8041B0E91D5E71878029B594623
:102B60009847002806F10106D2DA15B0BDE8F08FCB
:102B7000BAF1780F3FF6C9ADBAF1620F19D8BAF1C0
:102B8000250F4BD0BAF1580F7FF4BFAD00260DF1E1
:102B90003603009310AA08ABDDE90E018DF843A0BF
:102BA0001BF0B3FD119B9DF843A0129A039381463D
:102BB00097E0AAF1630115293FF6A7AD01A050F8EF
:102BC00021F000BF132D00002D2D00000B27000069
:102BD0000B2700000B2700000B2700002D2D000005
:102BE0000B2700000B2700000B2700000B2700001D
:102BF000532D00008D2B0000AD2C00000B27000092
:102C00000B2700002D2C00000B2700008D2B00004F
:102C10000B2700000B2700008D2B0000029B59465C
:102C2000504698470028A0DB01356EE5B8F1000F4B
:102C3000DDF8389036DB414648461CF025FFB9F1F7
:102C4000000F3FF462AD002609EB00030593324606
:102C500003969DF8421011F01003069300F0968041
:102C60000230039B18444B0648BF8018002F40F3E6
:102C7000A2809DF8408018F0040FA7EB000740F0F9
:102C80009A8018F0400F00F0D5804EB1029B594653
:102C9000304698470028FFF668AF0135C8F3800634
:102CA0003022C8E048461CF089FEC8E70E9800288C
:102CB00063D070238DF843300DF13603009310AAD2
:102CC00008AB00211BF021FD119B03939DF84230BE
:102CD000129A43F0100381468DF8423000264FF0DF
:102CE000780A0DF13600B8F1000FA0EB09000ADBFD
:102CF0009DF84010804521F040018DF8401002D928
:102D0000A8EB0003039306B101300DF136030593E0
:102D10009FE70E9A8DF8202000260DF12103324600
:102D2000039605930DF12009012092E73207DDE9B2
:102D30000E125DBFC6F300167601F6B22B26002AEE
:102D4000BFF625AF494262EB4202CDE90E122D26B5
:102D50001DE70E9B072A3FF6D8ACDFE802F00C0413
:102D6000060C08080C0C1D70CFE41D80CDE4EA179A
:102D7000C3E90052C9E41D60C7E4394B039006461D
:102D800002460593A3F10509052062E70B0748BF3A
:102D9000013066E710460792029B59469847002883
:102DA000079AFFF6E2AEB8F1000108F1FF38F1DC56
:102DB0003D446D1A47463EB1029B594630469847FE
:102DC0000028FFF6D2AE01359DF84220D10601D48D
:102DD000130707D5029B5946302098470028FFF675
:102DE000C4AE0135069B3BB1029B594650469847FD
:102DF0000028FFF6BAAE0135039E2E44731B002B4C
:102E00001BDC4E46059AB24233461FD8B6EB090684
:102E100030463FF5AAAE35442F447B1B002B7FF78D
:102E200074AC029B5946202098470028FFF69DAEBF
:102E30000135F2E72022B846B5E7029B594630201B
:102E400098470028FFF691AE0135D7E71878029B26
:102E500059469847002806F10106D3DA85E600BFF7
:102E6000637502002DE9F047038B044618071646E8
:102E70000CD501290CBF43F0100343F0200323833A
:102E800086F31188BFF36F8FBDE8F087022903F046
:102E9000070700F0A380D4F81490218BB9F1000F3C
:102EA0002DDA0025D4F80080C4E9005521F007018F
:102EB00041F00101218301F0070ABA4502D0A3685D
:102EC000002B5DD1B8F1000F01D1002D76D0002389
:102ED00041F00801218386F31188BFF36F8F002B27
:102EE00050D0A16800294DD00E684F684B4652461D
:102EF0002046B847002E45D031463668F5E701F048
:102F000007035A1F012A4FF000051ED821F00701C0
:102F1000062BD4F8008089B2C4E900550BD1B8F172
:102F2000000F06D04346628B013262831B68002B80
:102F3000F9D141F00201218320461BF0C1FC00259C
:102F40000028B8D041F02001B4E7042BA846B2D144
:102F500021F0070189B2218320461BF0B1FCEFE785
:102F6000218B236921F007015D6841F0040146E0EF
:102F7000218B236921F007019D6841F005013EE0A6
:102F80000123A5E7B8F1000F08D041464B46524651
:102F90002046D8F800801BF0C2FCF3E715B11B49AE
:102FA0002046A847EFF31186202383F31288BFF34E
:102FB0006F8F218B21F0080189B22183CA0605D5C4
:102FC00021F01003238301F0070764E78B067FF5E8
:102FD00057AF21F02003238301F0070720461BF0A1
:102FE0006FFC0428BCD00528C2D003287FF448AF6A
:102FF0002369218B1D6821F0070141F0060189B288
:103000004FF000082183C14655E700BF49E90100A0
:10301000014B0360002070479C53020070B5114BB8
:103020001C680D4694B1104B196800238B4202DBDB
:103030006FF0010070BD224612F8106B864208D076
:1030400001331446F2E72C600020F3E76FF00C0028
:10305000F0E7E06821F010FA0028F4D16FF01200D8
:10306000E8E700BFBC0100209C53020010B588B007
:10307000436802938368C068CDE903320A6800237D
:10308000CDE906230C4601AA044905931FF0A2FFCF
:10309000079808B9059B236008B010BD0BF5010027
:1030A00002460B46014819F013BF00BFE40500209B
:1030B000014819F083BF00BFE40500202DE9F0416D
:1030C0000D4B1C6806460F46904694B14FF0FF30FA
:1030D0004FF0FF31FFF7E4FF636820461D693A4671
:1030E00043463146A8470446FFF7E2FF2046BDE8C5
:1030F000F0816FF00104F9E7F01200200023036073
:10310000044B5A6812B9C3E9000070471060586058
:10311000704700BFF4120020014B1860704700BFD9
:10312000F012002030B585B00023019005464FF025
:10313000FF314FF0FF30CDE90233FFF7B1FF094B0C
:103140001C6834B1636820461B6801A9984724684D
:10315000F7E7284600F080F80446FFF7A9FF20466D
:1031600005B030BDF41200201FB5CDE901014FF0CC
:10317000FF304FF0FF310392FFF792FF074B1C68BF
:1031800034B1636820461B6801A998472468F7E7B3
:10319000FFF78EFF204604B010BD00BFF4120020E0
:1031A000024B0022C3E90022704700BFF412002046
:1031B000024B0022C3E90022FFF7F2BFFC120020FD
:1031C0002DE9F74307460D4609B100230B601F4C5C
:1031D000DFF87C9000264C450FD31E4B1C6884B34F
:1031E00054F8188C01AA41463846183C1CF0CFF917
:1031F00010B3D6B915BB26461EE0D4F8008001AA4C
:10320000414638461CF0C3F950B116B955B92646A7
:1032100006E03168002240461CF0B9F90028F5D1DB
:103220001834D8E7019B2B60F1E731680022404653
:103230001CF0ADF90028DDD1A469D0E7019B2B601B
:10324000D9E7304603B0BDE8F08300BF78510200F3
:1032500008520200FC1200202DE9F047DFF8AC9084
:10326000DFF8ACA080464FF000470026294C3D46D1
:103270004C450DD3DAF80040002C42D0183CB8F190
:10328000000F25D122695ABBA469F5E72F46EDE767
:10329000B8F1000F03D122694AB91834E8E7206871
:1032A000002241461CF073F90028F4D1F5E7636869
:1032B000BB4205DDAF4209D09D42A8BF1D46ECE7E9
:1032C000EBD19047002E08BF0646E6E71D46E4E72F
:1032D0002068002241461CF05AF90028D2D1D3E7D9
:1032E0006368BB4205DDAF4209D09D42A8BF1D46C1
:1032F000CAE7C9D19047002E08BF0646C4E71D465D
:10330000C2E7AF42C2D13046BDE8F08708520200A2
:10331000FC1200207851020038B50C4D0C484FF0DB
:10332000FF334FF0FF3219F0D3FD2B7863B9FFF76D
:103330003FFF00F069F8044608B901232B700448E8
:1033400019F03CFE204638BD0024F8E75C3300202D
:10335000E40500202DE9F043048F99B00746884624
:10336000013400F10806651EADB2B5F5004F47D037
:103370004A2305AA294630461CF0BFF804F57F54BD
:103380003F34A4B28146214601230DF10B023046A1
:103390001CF0B3F8B9F1000F014610DC002810DC76
:1033A0003B8FAB4209D13A466B1E22F8383F4FF4AF
:1033B0000041022330461BF07CFF2C46D3E7002857
:1033C00008DC294630461CF040F8214630461CF007
:1033D0003CF8E5E709F160030DEB0309002309F868
:1033E0004C3C084ACDF8008003AB05A80396ADF825
:1033F00010401CF005F90028DFD019B0BDE8F083BB
:103400000020FAE765F601007FB5012569462846E8
:103410000195FFF703FE044660BB02AA01A92846F6
:103420001CF094F8044610B110F10C0F22D103994E
:10343000B1F5803F21D2009A0023946818460844D1
:10344000844202D30133082BF9D10D4DA982EB82BE
:103450005368AB602846D368EB631CF0A5F90446BB
:1034600040B9084E6E602846FFF748FE28466E6059
:10347000FFF752FE204604B070BD6FF02004F9E75C
:1034800004130020C001002030BFFFF7FDBF00BFC4
:10349000054B5A699B689A421FBF044A536843F020
:1034A00080535360704700BFF832002000ED00E009
:1034B000134B9A6A12F0007F9A6A14BF1E201D20D7
:1034C00012F0807F9A6A18BF1F2012F4002F9A6AA8
:1034D00018BF212012F4802F9A6A18BF222012F4FC
:1034E000003F9A6A18BF232012F4803F9A6A6FEA5D
:1034F00002426FEA12429A6218BF2420704700BF4E
:1035000000ED00E010B5194A936A946A13F4805FE5
:1035100014BF1723162314F4006F946A18BF1823DE
:10352000A40509D5936B936A1C0404D518B1936A5A
:1035300023F40043936219230C4A906A10F4806FBD
:10354000906A18BF1A23C0050DD4926A12F4005F66
:1035500018BF1C230548826A42F47F42826200221F
:103560000A70184610BD1B23F4E700BF00ED00E011
:1035700010B51C4A936A946A13F0100F14BF1123FC
:10358000102314F0080F946A18BF1223A40709D55A
:10359000536B936A1B0604D518B1936A23F080031A
:1035A000936213230F4A906A10F0010F906A18BFBC
:1035B000142310F0200F906A18BF1523C40658BFBB
:1035C000926A084A906A800642BF506A20F400500E
:1035D0005062906A40F0FF00906200220A70184624
:1035E00010BD00BF00ED00E070B5444B5B688AB0D1
:1035F000C3F30803002585F31188BFF36F8F02F032
:103600007F44B4F17F4F0BD000252E460022033BB0
:103610008DF80720032B0CD8DFE803F025656962DD
:10362000140703D55207EFD50E46EFE706460125EE
:10363000ECE700249DF807309BB92022314602A810
:103640001CF007FA099B002D55D0C3F3080222B9DC
:103650006FEA53236FEA4323099302A920461CF023
:10366000D7F80AB070BD254BDC6A14F00204E0D133
:10367000DA6A002ADEDBDC6A14F08044DAD05A69A8
:10368000B16942F480725A61BFF34F8FBFF36F8FFD
:103690005A6931F8021C22F480725A61BFF34F8FCD
:1036A000BFF36F8F4DF60272914201D13468C1E7CA
:1036B0009A6AD2B232B10DF107010120FFF758FF2B
:1036C0000446B7E79C6A14F47F4405D00DF1070166
:1036D0000120FFF717FFF3E79B6AB3F5803FA9D3FB
:1036E000FFF7E6FEECE70DF107010020E6E70DF13C
:1036F00007010020EDE76FF30803ADE700ED00E000
:10370000044B5A6942F010025A615A6922F00802C9
:103710005A61704700ED00E0EFF30880EFF3098194
:1037200001B57246FFF760FF01BD00BF0B4880F393
:10373000088816F019FC202080F3118808484FF4FF
:103740000061401880F30988EFF3148002210843D8
:1037500080F31488BFF36F8F00F0A4F87855002031
:1037600038440020084B9B6883420BD1EFF305835C
:1037700043B1064B5A6842F080525A605A6A22F4AA
:1037800000425A621AF070BAF832002000ED00E0F0
:103790000F498A684FF030001044EFF3098C80E83D
:1037A000F01F202080F31288BFF36F8F094F4FF076
:1037B00000664A698A603E60906F0023936780F3D9
:1037C000118802F1300090E8F01F8CF309887047EF
:1037D000F832002004ED00E01EF0040F0CBFEFF300
:1037E0000880EFF30980816911F8021C0229FFD0DB
:1037F00001B572461CF012F801BD00BF40B20028AE
:1038000007DB044A4109012300F01F00834042F80E
:103810002130704700E100E040B200280CDB430992
:10382000064900F01F0020330122824041F8232086
:10383000BFF34F8FBFF36F8F704700BF00E100E011
:10384000054B420900F01F0053F82220012303FA20
:1038500000F01040704700BF00E100E040B20028D7
:10386000ACBF00F16040074B01F10101ACBF00F5B6
:10387000614000F00F004FEA4111B4BF195480F8C5
:103880000013704714ED00E0044B054A23F07F035A
:103890009360BFF34F8FBFF36F8F7047000000003E
:1038A00000ED00E008B5FFF7EFFF0B4AD2F88830D3
:1038B00023F47003C2F88830EFF3148323F0040379
:1038C00083F31488BFF36F8F19F006FA1AF004FB24
:1038D0001BF0D6FF19F040FA00ED00E042F8203C62
:1038E000009B42F81C3C0A49019B42F8183C029B91
:1038F00042F8143C21F001014FF0807342F8043C7F
:1039000042F8081C0023203A02658367704700BF15
:10391000F7E601000A4B00B50E46154698602C46A6
:1039200086F309880020044B984720460021002296
:103930000023024C204700003BF80100F7E601009D
:10394000F8320020014B10221A61704700ED00E0B0
:1039500008B5EFF30583064A103B02EBC30152F8AA
:10396000330049688847BDE80840FFF791BD00BFB4
:10397000144F0200024B034A0348012100F064B8CF
:103980000000042000000020C0530200084AC2F8D2
:1039900098000B6823F01F03034343F01003C2F8A1
:1039A0009C308B6843F00103C2F8A030704700BF21
:1039B00000ED00E02DE9FF41174E0D461F4604467D
:1039C0004FF00008A84523DA6068D8B13FB1411E26
:1039D00008421BD11F2819D92368194216D1236820
:1039E00001931BF059FFA36803430393D6F890306B
:1039F000C3F30723D0B2013B984207D801A9FFF7D0
:103A0000C5FF421C08F101080C34DBE76FF015021A
:103A1000104604B0BDE8F08100ED00E0044B052243
:103A2000C3F89420BFF34F8FBFF36F8F704700BF71
:103A300000ED00E0BFF35F8F024B0022C3F894203B
:103A4000704700BF00ED00E010B5034C0123227861
:103A5000FFF7B0FF207010BD5D330020F0B5534B71
:103A6000534CD3F890302568C3F307239D4285B0AB
:103A700000F29880FFF7DEFF00200C26854216D169
:103A80004C4C4A4F25706846FFF7C2FA002506469F
:103A9000AE4213D1237845490020D1F89020C2F3DB
:103AA0000722934278DBFFF7B9FF002043E061680B
:103AB00006FB0011FFF76AFF0130DFE7009800EB1B
:103AC00005114FEA051CCB686FF31303B3F5000F24
:103AD00049D00AD8B3F5001F2FD0B3F5800F37D0E7
:103AE000B3F5801F10D00135D2E7B3F1807F43D00A
:103AF000B3F1007FF7D150F80C3088684A681BF0AA
:103B0000CBFE40F4802009E050F80C3088684A6809
:103B10001BF0C2FE40F0885040F43020CDE9012374
:103B20000390D7F890302078C3F30723013B9842E5
:103B30002BD96FF0150005B0F0BD50F80C30886837
:103B40004A681BF0A9FE40F0885040F40020E5E7E9
:103B500050F80C3088684A681BF09EFE40F00070F8
:103B600040F40030DAE750F80C3088684A681BF0FF
:103B700093FE40F08270D1E750F80C3088684A68B4
:103B80001BF08AFE40F08870C8E701A9FFF7FEFE2F
:103B9000237801332370A6E7C1F89830C1F8A0005C
:103BA00001337AE74FF0FF30C5E700BF00ED00E0DA
:103BB000CC5302005D33002070B54169867A0B4D0D
:103BC000044659B1437ADB0706D42C2303FB065382
:103BD0005B6A1B689B689847002363612C20214621
:103BE00000FB0650BDE8704020F0D1BD400600202B
:103BF000024B2C2202FB0030704700BF4006002021
:103C0000827A064B2C2101FB02339A6A1B7F1B33FD
:103C1000801A23F00303B0FBF3F070474006002046
:103C200038B5074B827A2C2404FB02335B6AD3E954
:103C300001240C601568FFF7E3FF04FB005038BD5A
:103C4000400600202DE9FF4D054668460391924647
:103C50009B4620F0FDFFDDE90067EFF3118820238C
:103C600083F31288BFF36F8F6B8B002B43D02A8BAB
:103C70009A4227D900220023284619F0EFF904467A
:103C800000B388F31188BFF36F8F039B002B42D0E2
:103C900032463B46684621F000F8A27A264B2C219A
:103CA00001FB023320465B6A1B6803A91D68DDE93E
:103CB0000023A8470546606170BB2046FFF77CFFE4
:103CC0002C4624E0698B4B1E6B8388F31188BFF36D
:103CD0006F8F2B7F2A8BAC6A1B3323F00303521A9E
:103CE00002FB0344144B154AEB1A9B105343A37277
:103CF0002B7FE372C9E788F31188BFF36F8F5246B9
:103D00005B46284619F0AAF904460028BDD1204692
:103D100004B0BDE8F08D6361012300252381039B7E
:103D20006382E27A6560294604F118001BF09CFE6C
:103D300063692582E360EAE740060020A38B2EBA80
:103D400070B50C4C2C2500B970BD037A4668013B58
:103D5000DBB20372002BF7D1C3604360837A05FBAB
:103D600003431B6A13B198473046ECE7FFF724FF83
:103D7000FAE700BF40060020024B0122C3F84025AD
:103D80000020704700E0014020B1034B800143F068
:103D900001031847704700BF8052020010B5054B61
:103DA0009A6814688AB201461846A047C01720F0E6
:103DB000040010BD944E02002DE9F3411C4D06464F
:103DC00017469846BFF35B8F2C68BFF35B8F14F0E8
:103DD000010402D028B96FF00104204602B0BDE80A
:103DE000F08101A91BF0F5FB1249024630461BF099
:103DF000F8FD04460028EED1BFF35B8F2B68BFF3BC
:103E00005B8F1B07E9D4A5F1D40107224046B847D0
:103E10000628A5F1D40507D80722214628461BF01D
:103E200023FE2046E871D8E70723B0FBF3F0F9E75B
:103E3000D4000020307702002DE9F04188B09C7951
:103E4000DDF838805D791E79DF7893F802C093F849
:103E500001E01B78B8F1000F0ED0CDE90638CDE9AE
:103E600004CE1346CDE90267CDE90045084A1AF0B1
:103E700035FC08B0BDE8F081CDE905E3CDE9037C70
:103E80001346CDE90156034A00941AF027FCF0E7E7
:103E9000737502009775020070B504468CB0154624
:103EA0001E46A2B129B10A4602A804211AF07EFCDE
:103EB00002A900912B462246242103A8FFF7BCFF4C
:103EC000109A314603A8FFF7F9F80CB070BD03460D
:103ED000044A242103A81AF001FC0028F0DA6FF04C
:103EE0001500F2E7B875020007B5064B0648DA7907
:103EF000C2EBC202009200221146FFF7CDFF03B0D1
:103F000000BD00BF000000203077020030B504463D
:103F10008DB0154692B129B10A4602A804211AF0C3
:103F200045FC02A900912B462246242103A8FFF755
:103F300083FF03A81BF027FB0DB030BD0346054AE5
:103F4000242103A81AF0CAFB0028F2DA6FF015004A
:103F5000F2E700BFB875020007B5009313460A46A2
:103F600001460248FFF798FF03B000BD7F770200CB
:103F70000A4601460148FFF7C9BF00BF7F7702002C
:103F800007B5009313460A4601460248FFF784FF2F
:103F900003B000BD797702000A4601460148FFF7E9
:103FA000B5BF00BF7977020007B5009313460A46F4
:103FB00001460248FFF770FF03B000BD6A770200B8
:103FC0000A4601460148FFF7A1BF00BF6A77020019
:103FD00007B500220346009102481146FFF75CFF37
:103FE00003B000BD7177020008B5024819F062FA0B
:103FF000002008BDDC01002010B51A4CBFF35B8F18
:104000002368BFF35B8FD90719D514F8CD3CC3B132
:10401000BFF35B8F2368BFF35B8F5A0701D400F0B7
:104020007DFBBFF35B8F54E8003F23F4006244E85C
:1040300000210029F7D1BFF35B8F1B050DD40020B1
:104040000AE001F0D3F838B914F8CD3C002BDFD1E9
:1040500001F0DCF80028DBD010BDBDE81040FFF710
:10406000C3BF00BFD400002007B5009313460A4623
:1040700001460248FFF710FF03B000BD857702003C
:104080000A4601460148FFF741BF00BF857702009D
:1040900010B586B0094B0A4803930024CDE90444C7
:1040A00020F041FC03AB0093064905480A234FF476
:1040B000AF6219F005FA204606B010BDC1750200C6
:1040C00080070020203400200146014819F038BA4A
:1040D000800700200146014820F0FABB800700203D
:1040E00030B40278012A0B4613D0022A25D072B9C7
:1040F000154A02F1100452F8045B41F8045BA24235
:10410000F9D112780A7042885A73120A9A7330BC35
:1041100070470D4A02F1100452F8045B41F8045B49
:10412000A242F9D112780A7042685A73110A120C2D
:10413000DA73120A99731A74E9E7014630BC112246
:1041400018461BF086BC00BFA878020008B51BF01B
:104150003CFE19F08DFC044B1B680BB10A209847FC
:10416000BDE8084019F098BC4413002038B5044657
:1041700008481BF098FC054650B1601EC0B21F28CD
:1041800096BF054B0021195C05F10C001BF005FDE5
:10419000284638BD1C070020B97802000F2810B54A
:1041A0000CD80D280CD90A481BF07DFC044618B128
:1041B00004210C301BF0F1FC204610BD1328F2D076
:1041C00009B10448F0E7BDE810400220FFF7CEBF78
:1041D000480700209806002005280CD0A0F10E0307
:1041E0000C2B0AD8064B23FA00F000F00100C0F1B6
:1041F0000200C0B27047032070470220704700BF22
:1042000000C00804F8B506460F4602F023FA05463A
:1042100090B18378012B4FF0000304BFD0F8A04089
:10422000C0F8A0304FF0130118BF1C461CF009FD68
:10423000284601F0CDFE2CB93946304605F044FB46
:10424000044610B120461EF021FD3946304604F0E8
:10425000A5FB0A4B1B687BB153F80C4904B10C3C1D
:104260009B6813B13946304698472CB1E26802B1D9
:104270000C3A23461446F3E7F8BD00BFBC130020F8
:1042800070B5C668337893B9B6F801400F2120465F
:1042900001F050FFF378054650B90A4A118831B948
:1042A0006FEA04506FEA10501080074A137070BD17
:1042B0000373012101F0B4FE2846BDE8704001F00F
:1042C00087BE00BF2C3300205E33002010B5084CA1
:1042D0000146062294F86F0002F0D4F938B994F838
:1042E0006F000449BDE81040052202F0CBB910BDB3
:1042F000000000208E78020008B5084B18461BF01D
:10430000D9FDBFF35B8F00F00B0053E8002F43E8AB
:1043100000010029F9D1BFF35B8F08BDD400002054
:1043200010B5012104460C301BF058FC2146034A0D
:104330000078BDE8104000231BF025BEC0540200E9
:1043400010B5012104460C301BF048FC2146034AFD
:104350000078BDE8104008231BF015BE8054020011
:1043600070B531481BF0B8FB044600285BD000F163
:104370000C0528461BF03AFC022805D004282FD053
:104380002046FFF7DDFC21E0238A032BF8D9042126
:1043900028461BF023FCFF22438806882276228AC7
:1043A000C6F30B009A426083EAD10F2101F0C2FEEE
:1043B00005460028E4D001F0EFFE320B20762146BE
:1043C00028461CF0AFFB284601F002FE174BD3F83D
:1043D0004C3143B3BDE870401549164820F078BA17
:1043E000238A012BCCD9284602211BF0F7FB064675
:1043F0000078FFF7F1FE10F002050DD10E4A0F49CB
:104400000F4840F60C431AF0C4F985F31188BFF346
:104410006F8F0323184602DF0A4A307806232146AD
:104420001BF0B1FDACE770BD4C0100200000002086
:10443000FC01002020080020CA750200FE75020061
:104440002C760200505402002DE9F04782460F46B8
:104450009146002872D0BFF35B8FDFF8E480002321
:1044600058E8004F48E80032002AF9D1BFF35B8FCB
:10447000002C63D02046FFF7C3FB324D0C2303FB17
:10448000005026464388534511D0BFF35B8F58E850
:10449000003F48E80062002AF9D1BFF35B8F002B90
:1044A0004CD01E463046BDE8F047FFF749BCA14559
:1044B0000AD020461BF0F2FAB9F81020D9F80C10F7
:1044C00004F10C001BF060FB2046FFF799FB4FF056
:1044D0000C0808FB005043689BB197B92046FFF7D2
:1044E0008FFB08FB005001214268536803F01F0056
:1044F000814010685B0900EB8300137AD3B11BF095
:10450000E2FC2046FFF77CFB4FF00C0808FB005054
:104510008368002BC6D02046FFF772FB08FB00F033
:104520002F542046FFF76CFB08FB0055A86818F0D5
:10453000C5FDB7E7C9431BF03CFDE2E7BDE8F087E6
:10454000480100204813002010B5C1E900239DF860
:1045500008300B720C46FFF753FB034B0C2202FB97
:1045600000335C6010BD00BF48130020F8B5024660
:104570000B4610481BF097FA0446C0B104210C30DA
:104580001BF0F2FA2046FFF73BFB0B4D0C2707FB15
:104590000050002646802046FFF732FB07FB005004
:1045A00086602046FFF72CFB07FB00556E60204617
:1045B000F8BD00BFF00600204813002013B50C46DC
:1045C0008DF80700B0B929B10C49072220461BF02D
:1045D00019FA48B90A499DF807000DF1070205F0DC
:1045E000F9F8002002B010BD9DF807002146FFF742
:1045F00009FEF6E76FF01500F4E700BF95780200BA
:10460000E5FE010029289ABF014B185C092070477C
:10461000E3780200034B0146D3F86C01826892688C
:10462000104700BF000000202DE9F84304460C307D
:104630001BF0ECFA0121054604F10C00B4F81080DF
:104640001BF0C4FA238A012B04D82046BDE8F843A6
:10465000FFF776BB022104F10C001BF0BFFA0746FE
:104660000078FFF7B9FD10F0010906460DD10F4A99
:104670000F49104841F236031AF08BF889F311887C
:10468000BFF36F8F0323184602DF05230A4A3878E9
:1046900021461BF078FCB307D7D56369A4F81080D6
:1046A00013FA85F5E560BDE8F88300BFCA7502001E
:1046B000497602002C7602002854020038B50C46D8
:1046C00019F0D6F9E3681A78022A0DD0042A05D029
:1046D0002046FFF735FB6FF015040EE05878FFF722
:1046E0007BFDC30705460CD4094821461BF0DFF9C2
:1046F0000849094820F0ECF8002419F0CDF92046CB
:1047000038BD2046FFF790FF012DEDD1F4E700BF43
:104710004C010020FC010020200800200148042159
:104720001BF0D1BBD4000020004870474E7502003A
:10473000014818F0BFBE00BFEC01002070B505466F
:104740000C4659B94FF0FF304FF0FF31FFF70EFF25
:10475000044618B96FF06805284670BD2046FFF77B
:104760004FFA164B0C2202FB0033A61830465D8030
:104770001BF04CFA03280BD9032130461BF015FA25
:104780000580237C033B8370012130461BF015FA22
:1047900040F635439D4209D12046FFF73BFF0546D1
:1047A0000028D9D02046FFF7CBFAD5E704482146A8
:1047B0001FF0E3FF0025FFF7BBFFCDE74813002004
:1047C0005401002038B502460B46254DD5F854114A
:1047D00009B9002038BD05F5987018F0A9FC00282B
:1047E000F7D10022002305F5AA7018F037FC044623
:1047F00068B91C4A1C491D4840F61B4319F0C9FF03
:1048000084F31188BFF36F8F0323184602DFD5F8B6
:10481000480120B1FFF794FA0023C5F8483120463B
:104820001BF070F9C5F848012046FFF7F3FE08B900
:104830000120CFE70E4818F041FC2046FFF7E0F9D1
:104840000C4B0C2202FB00301F2122464088FFF750
:10485000FBFD2046FFF774FAFFF76AFFE8E700BFA9
:1048600000000020CA750200627602002C76020069
:1048700030010020481300202DE9F04F064687B094
:1048800090460C4669B94FF0FF304FF0FF31FFF70B
:104890006DFE044658B96FF06805284607B0BDE8BC
:1048A000F08F887AFFF7A4F93E4B984274D1012229
:1048B000002168461FF078FF2046FFF7A1F9DFF8D6
:1048C000E8900C2303FB00906F46C0F808D0204608
:1048D0001BF018F901463046FFF730FF054618B1C6
:1048E0002046FFF72DFAD8E719F0B8F92F4B984278
:1048F0001ED12F481FF054FF002183464FF4A02003
:10490000FFF760FF824688B92A4A2B492B484FF4AB
:10491000F97319F03EFF2A48314619F03AFF8AF33D
:104920001188BFF36F8F0323184602DF5C45E0D187
:104930004FF4A0223846002318F0FAFB074698B13E
:104940004FF4FC731B4A1F491C4819F022FF1E48F4
:104950003A46314619F01DFF002383F31188BFF357
:104960006F8F0323184602DF2046FFF749F90C2317
:10497000584319F800604EB1093E2046F6B2FFF7E1
:10498000DFF9092E0BD8114B9D5786E7B8F1000FC0
:10499000A6D0C8F8004080E76FF015057DE76FF0FE
:1049A00004057AE7F006002048130020901100204B
:1049B00054010020CA750200667602002C760200BF
:1049C0006E7602008E76020097760200D978020099
:1049D00010B5FBF745FD034B1B6813B1BDE8104054
:1049E000184710BD6C13002073B5274D0646D5F847
:1049F0006C011FF041FD00283FD06FF0020105F16E
:104A0000D4001BF0D6FA01211BF05DFAC30737D49E
:104A10001BF072F9044668BB1C4B1E600122114654
:104A200005F598701FF0C0FE05F5AA701FF067FE2F
:104A300017481FF078FF1749154800946FF00703D7
:104A40004FF4966218F03CFD134911481FF0CCFF5B
:104A5000D5F86C01114983681B689847044648B92A
:104A600026B902B0BDE87040FBF7FABC05F1C400FE
:104A700018F020FD204602B070BD6FF01204F9E777
:104A80006FF07704F6E700BF000000206C130020F1
:104A90002008002098390020DC760200BD46000086
:104AA0002DE9FF414C4BB0F80170198847F4704272
:104AB00091424FF0000608BF1E80054604BF474BD9
:104AC0001E7800F027FAEB78012B08BF444B05F164
:104AD00004000CBF93F86F804FF000081BF071F9D1
:104AE000291D48B302A81BF062F9062205F1110145
:104AF0000DF101001AF0ADFF01238DF80030EB78C5
:104B0000012B12D102A8FFF7E1FBEB78012B044641
:104B10000AD100F0A7FC6FF08001804610301BF036
:104B200048FA40461BF099FF94B9132138461BF010
:104B300081FC04B0BDE8F08140461BF0FEFD01465B
:104B400002A81BF0BDF9291D68461BF0B9F9D6E78C
:104B50002046B5F8013020F8703B02A91BF0B0F9EF
:104B6000B5F81730A4F88630B5F81930A4F88C30B1
:104B7000B5F81B30A4F88E30EB78E3700022012BDF
:104B8000227317D1694604F177001BF099F900F000
:104B900069FC217A124DC1EBC101294404F17E0068
:104BA0001BF08EF9D5E9382303F03F031A4301D0F7
:104BB00000F0F6FD0721204601F032FA26B12673F7
:104BC0000121204601F02CFA204601F01BFB204673
:104BD00001F0FEF9ADE700BF2C3300205E3300206A
:104BE0000000002000B5C1680B7889B033B13C2BC0
:104BF0002FD109B05DF804EB1BF0E7B98DF8003058
:104C0000B1F80130ADF80130CB788DF80330B1F850
:104C10000B30ADF81730B1F80D30ADF81930B1F8F0
:104C20000F30ADF81B304B7C8DF81D30043101A8DE
:104C30001BF046F9084906220DF10B001AF009FF96
:104C4000054906220DF111001AF003FF6846FFF72F
:104C500027FF09B000BD00BFA278020038B50546A5
:104C600010481BF027F9430716D54FF0FF304FF0DF
:104C7000FF31FFF77BFC044688B107210C301AF0A6
:104C80007DFF29461BF01CF921460022BDE8384073
:104C900042F21100FFF7F0BD6FF00A0038BD6FF06F
:104CA0006800FBE7D400002008B508481BF002F9B3
:104CB000430707D50022BDE80840114642F2100024
:104CC000FFF7DABD6FF00A0008BD00BFD400002076
:104CD00038B5032104460C301AF080FFB0F80130DB
:104CE00040F6354293420ED0E168057809782246B5
:104CF0001846FFF7A9FB35B1034818F0DFF9BDE806
:104D00003840FFF715BD38BD3001002038B504210B
:104D100004460C301AF062FF45780178408822463C
:104D2000FFF792FB35B1044818F0C8F9BDE83840E8
:104D3000FFF7FEBC38BD00BF3001002070B54FF05A
:104D4000FF320D464FF0FF3300210646FFF726FAEB
:104D5000044660B90A4A0B490B481A2319F019FD99
:104D600084F31188BFF36F8F0323184602DF0221FB
:104D700004F10C001AF002FF06704570204670BD69
:104D8000E5760200627602002C760200F8B50A4E43
:104D900007460025F379ECB2A34202D86FF0010078
:104DA00009E0C4EBC401314438461BF0FEFB013579
:104DB0000028EFD02046F8BD0000002037B504469B
:104DC0000D4699B1174928461BF0EFFB70B91648FC
:104DD000C4EBC404294620441BF0EFFB13481BF02E
:104DE000EFFB430719D4002003B030BD68461AF02A
:104DF000D0FF0028F8D16846FFF7C8FF0028F5DA91
:104E0000094BC4EBC4041C44694620461BF0D5FB87
:104E1000002DE3D021462846DEE7FFF7E5F81AF03B
:104E20006DFFE0E79578020000000020D40000202C
:104E300038B51549062205461AF0E4FD0446E8B1E6
:104E40004FF0FF304FF0FF31FFF790FB0446B8B151
:104E5000062229460C301AF097FE2146002242F223
:104E60000500FFF709FD044640B906220648294619
:104E70001AF0EFFD054B012283F86820204638BD6B
:104E80006FF06804FAE700BF69000020000000200E
:104E900073B5054601AA002141F20900FFF7ECFCB9
:104EA000064650B9019B0F49DC680622601C1AF0C7
:104EB000A9FD28B90198FEF743FF002002B070BD9C
:104EC00009490622601C1AF09DFD0028F2D0062236
:104ED000611C681C1AF0BDFD01982E70FEF730FFB2
:104EE0000120EBE7A27802009C780200084BBFF398
:104EF0005B8F53E800CF4CF4806C43E800C2002A7B
:104F0000F7D1BFF35B8F037A19430172704700BF7B
:104F1000D40000200A4BBFF35B8F53E8002F22F42C
:104F2000806143E800100028F7D1BFF35B8F530581
:104F300004D504490022022004F062BC704700BF7F
:104F4000D40000209907020007B50023CDE9000333
:104F500003496A46022004F053FC019803B000BDE7
:104F6000A3060200F7B5054670B13F4C94F8222124
:104F700094F823310AB19A4208D2013384F82331DC
:104F80002B7A43F004032B7203B0F0BD0021022200
:104F9000084601F077FB064648B128460121FFF795
:104FA000A5FF304603B0BDE8F04001F011B801465E
:104FB0002E4800F051FA94F823311BB130461BF013
:104FC00040FBA8B994F8232194F822319A4216D1D3
:104FD0000022114642F22900FFF74EFC40B994F836
:104FE0002331013384F823312B7A43F004032B72ED
:104FF0001F48002103B0BDE8F04000F02DBA2A465A
:105000006F1C12F82A0B39461BF0E0FA064630BB3B
:1050100094F82331013384F823312B7A43F00403CD
:105020002B7294F8A7305B0719D5394668461BF0F8
:10503000C4FA01234FF0FF304FF0FF318DF80730F5
:10504000FFF794FA044650B1082269460C301AF072
:105050009BFD3246214642F24E00FFF70DFC012037
:105060001BF0EFFAC4E700BF0000002003070200B6
:1050700075060200F8B5054600B3354C94F82221B8
:1050800094F8233192B10132934210DC00210222C4
:10509000084601F0F7FA064688B128460221FFF7D4
:1050A00025FF3046BDE8F84000F092BF13B1013B48
:1050B00084F823312B7A23F004032B72F8BD0146C8
:1050C000244800F0C9F930461BF0BBFA074688B9FE
:1050D00094F8233194F822219A4217D2013B84F8A4
:1050E00023312B7A1C4923F0040302462B72022041
:1050F00004F086FB94F8233113B101201BF0A1FAD0
:10510000BDE8F8401548002100F0A6B94FF0FF3087
:105110004FF0FF31FFF72AFA06460028EAD00721B0
:105120000C301AF02BFD691C1BF047FA3A46314649
:1051300042F22800FFF7A0FB0028DBD194F82331CE
:10514000013B84F823312B7A23F004032B72D1E73F
:1051500000000020030702002D0602007506020071
:1051600070B5044611B16FF0150070BD30B91D4D1A
:10517000EB79012B15D16FF00B00F6E71A491BF004
:1051800014FA0028F3D12046FFF700FE002825DAA4
:105190002378012BE7D1A37903F0C003C02BE6D01D
:1051A000E1E705F1D4001BF00BFAC3070BD5EE794C
:1051B0002146731C3046EB71FFF700FE60B1EB79BE
:1051C000013BEB71D1E7002CCDD0074920461BF005
:1051D000ECF90028EBD0C6E73046C6E76FF0770061
:1051E000C3E700BF000000209578020007B56846BD
:1051F000FFF74EFE044BD87118B169460020FFF747
:10520000DDFD03B000BD00BF000000202DE9F0412E
:10521000244DEE7988B0002E3DD195F8C24014F0AF
:10522000010416D06A4631464FF60940FFF724FBC9
:10523000E8B9009BD9684B78012B1C4628BF012494
:1052400023B11622023102A81AF003FC0098FEF7DF
:1052500077FDEC71002602AF4FF01608EB79F4B23F
:10526000A34206D8BBB1002008B0BDE8F0813446A7
:10527000EFE708FB047106220DF101001AF0E9FBCB
:105280000123694620468DF80030FFF797FD00287E
:10529000EAD10136E2E70021084608B0BDE8F04156
:1052A000FFF75EBF000000202DE9F04184460E4666
:1052B00090461D4618B96FF01500BDE8F081002B2F
:1052C000F9D0310308D57207F5D41BF04AFA00284B
:1052D000F3D101232B70F0E7F307047822D51E49A0
:1052E0002AB1B70603D591F8D830580630D5C4EBAB
:1052F000C4040F5D012F08D10134214460461BF026
:1053000028FA0028D9D12F7001E0002FFBD0B8F186
:10531000000F05D0B20642BF2B7843F002032B707A
:105320000020CAE7730710D50B49C4EBC4040F5D16
:10533000012F07D1013421441BF00BFA0028BCD106
:105340002F70E7E7002FE5D1FAE71BF00AFAC0E774
:105350006FF08500B1E700BF0000002008B50449E8
:10536000072209301AF04EFB003818BF012008BD93
:105370009578020070B5154B027883F86F200446CB
:105380000D46FFF7EBFF034620786BB9104901F09B
:1053900035F9044610B96FF00B0070BD052100F01F
:1053A0003FFE2C600020F8E704F109011BF0A3FC8C
:1053B00048B9207804F1090101F020F904460028D9
:1053C000E9D00621EBE76FF01500E6E700000020CA
:1053D0008E78020038B543680446580501D5002090
:1053E00038BD22690AB1D907F9D5194D2078EB7972
:1053F0008342F4D9C0EBC0001649072228441AF0B2
:1054000001FB0028EBD06068C20706D495F8703025
:10541000082B02D8A3689F2BE1D910F0300F236925
:105420000AD0002BDBD0C30608D400F46030B0F5FE
:10543000603018BF0120D3E7002BF6D1D4E9022356
:105440009A42CCD81F2ACAD9B3F5804FEDD9C6E706
:10545000000000209578020003460148184700BF6D
:105460001800002000487047180000202DE9F04F78
:105470008DB0CDE90423804600238D480F69079342
:105480001BF0AFF942070C4640F108810846FFF7D0
:10549000A1FF28B96FF0150318460DB0BDE8F08FD5
:1054A00020461BF075F981460028F3D008F110055D
:1054B00028461BF096F90306C0F3C01600F1F180F0
:1054C0000F22314608A81AF0CFFA6168A368ADF838
:1054D00020300846E368ADF822301BF06FF98DF8F4
:1054E0002D00480601F080033BD5002B0CBF0123A3
:1054F00003236FF480716E488DF82E301BF077F91E
:105500006C4A237888F8003082F86F303A1E0DF12B
:105510002503616818BF01224046FFF7C5FE034618
:105520000028B9D108F109000722E7B121691AF072
:1055300090FA20461BF059FA6368D907824657D57E
:105540009FB113F0100F0CBF0123042321698DF8C4
:10555000243007220DF126001AF07BFA4FF00009E3
:1055600005E09B09C5E75449E1E78DF824704FF049
:10557000FF304FF0FF31FEF7F9FF8346002800F0BF
:1055800093800F2208A90C301AF0FEFA5946002227
:1055900042F20600FFF770F9834600287CD16FB90C
:1055A000179B0093CDE9019A169BDDE90412404652
:1055B0001BF0A1F9034600287FF46EAF6368DB0798
:1055C00024D507A94046FFF7D5FE0346F0B110F1F8
:1055D0000C0F7FF45FAF002F7FF45EAF626890071F
:1055E0003FF55AAF267986F00206C6F340062BE057
:1055F0009A0503D4169B0BB9022803D102238DF818
:105600002430B4E703238DF82430A7E74046012176
:105610001BF0FBF9DDF81C80034668B1B8F1000F00
:105620003FF43AAF04900021404600F0F9FC4046B8
:1056300000F0CEFC049B2FE7B8F1000F02D04046EB
:1056400000F0C6FC002FCDD032460E2128461BF0BC
:105650003FF90AF1FF335A425A41082128461BF00C
:1056600037F9AAF102014A424A41284609211BF0B2
:105670002FF922790A2102F0010228461BF028F9AD
:105680004A460B2128461BF023F922790D21C2F34B
:10569000800228461BF01CF95B46FDE66FF00A030A
:1056A000FAE66FF07703F7E66FF06803F4E600BF01
:1056B000D4000020000000209578020073B5154644
:1056C000069A0C46CDE900322B460A46014613489D
:1056D000FFF7CCFE00230646611C201D9D4202D12F
:1056E000304602B070BD14F83320012A09D111F8F8
:1056F0003320012A05D150F8332012B11278D20795
:1057000001D40133EAE7064906481FF012F94FF4C5
:1057100070220023034817F071FFE1E71800002012
:10572000610A02003000002010B519481BF095F9FD
:1057300018486FF480411BF05AF816481BF051F8D6
:1057400003461A06C0F3C01021D512481BF049F8D1
:10575000430513D50E48FFF701FE0F490346087EA7
:1057600093B90E49052200F08DFF044630B10021A7
:10577000017300F055FC204600F02AFCBDE8104003
:10578000034800211BF041B906222131EBE710BD8F
:105790001800002028000020000000208E78020061
:1057A00073B52F482E4C1BF01CF810F4804F55D0C9
:1057B00020461BF016F80206C0F3C0154ED4204652
:1057C0001BF00FF8430549D501A9A4F11000FFF71C
:1057D000D1FD002842D1A4F11000FFF7BFFD024621
:1057E00020461AF0FEFFC0F3803120461AF0F9FF80
:1057F000C0F3802320461AF0F4FFC0F3403043EAA0
:10580000800081F0010140EA41010DF10303A4F1A0
:105810001000FFF749FD08BB0121A4F110001BF0A7
:10582000F4F8019E50B12946304600F0F9FB6FF4C0
:10583000804120461AF0DBFFC0F38035304600F08F
:10584000C7FB5DB1BFF35B8F54E8003F43F4804377
:1058500044E80032002AF7D1BFF35B8F02B070BD7D
:105860002800002070B59AB01422002104A81AF074
:10587000FBF847F21213ADF80C304FF48073ADF81B
:105880000E30324B44F2010201A903A8CDE90523F1
:1058900016F014FE30B9019802AB412209A91EF09E
:1058A00096F8D8B11F252A4BBFF35B8F53E8001F32
:1058B00021F0010143E80012002AF7D1BFF35B8F0A
:1058C000244E18F0D5F834680CB1043C30D10023D4
:1058D000C6E9003318F0E0F81AB070BD40220DF1AF
:1058E00025011D481AF0B5F81C49019802AB202289
:1058F0001EF018F80028D5D101981DF0CBFF054601
:105900000028CFD1144916481BF0ACF815482031B7
:105910001BF0A8F8BFF35B8F134B53E8001F41F057
:10592000100143E80012002AF7D1BFF35B8FBAE7FA
:10593000002D0B4D18BF002523680BB12846984752
:105940006468002CC3D0043CF6E700BF00000209E5
:1059500070130020781300207F3300205F33002075
:10596000BF330020DF330020D400002030B5A7B0C3
:105970001422002108A81AF077F804233D22002100
:1059800016A815931AF070F847F21213274CADF8C9
:105990001C304FF48073ADF81E3044F20103CDE9A2
:1059A0000934234905AB202207A81EF03AF8D8B1E4
:1059B0006FF0040418F05CF81E4B1D6885B10020E0
:1059C00018601D4BBFF35B8F53E8001F21F00201ED
:1059D00043E80012002AF7D1BFF35B8F04B3A84756
:1059E00018F05AF827B030BD144D402229460DF169
:1059F00055001AF02EF806AB02932023CDE9005390
:105A00000599412315AA20461EF064F90028CFD13C
:105A100005981DF03FFF041E18BF6FF00404C9E78E
:105A20000DA806491BF01EF80DA8D8E700000209D2
:105A30005F33002074130020701300207F33002098
:105A400008B50449402219F0DDFFB0FA80F04009A2
:105A500008BD00BF0D79020010B598B004461422AD
:105A6000002102A81AF000F844F21213ADF8043035
:105A70004FF48073ADF80630124B4FF48042CDE9FD
:105A80000323214604230DF11D008DF81C301AF06C
:105A9000E9FF04F120010DF13D001AF0E3FF6B4630
:105AA000412207A901A81DF0BCFF044601A81EF071
:105AB0004CFA2CB900981DF0EDFE012018B010BD75
:105AC0000020FBE70000020910B5002837D0204A6B
:105AD000136823B1043B984234D05B68F9E71D4B4F
